:100000000C94B3000C94D4000C94D4000C94D40041
:100010000C94D4000C946B030C9446030C94D40001
:100020000C94D4000C94D4000C94D4000C94D40000
:100030000C94D4000C94D4000C94D4000C94D400F0
:100040000C94D4000C94D4000C94D4000C94D400E0
:100050000C94D4000C94D4000C94D4000C94D400D0
:100060000C94D4000C94D4000C94D4000C94D400C0
:100070000C94D4000C94D4000C94D4000C94D400B0
:100080000C94D4000C94D4000C94D4000C94D400A0
:100090000C94D4000C94D4000C94D4000C94D40090
:1000A0000C94D4000C94D4000C94D4000C94D40080
:1000B0000C94D4000C94D4000C94D4000C94D40070
:1000C0000C94D4000C94D4000C94D4000C943006FE
:1000D0000C94D4000C94D4000C94D4000C94D40050
:1000E0000C94D40007634236B79BD8A71A396856D8
:1000F00018AEBAAB558C1D3CB7CC5763BD6DEDFD4A
:10010000753EF6177231BF000000803F0800000006
:10011000BE922449123EABAAAA2ABECDCCCC4C3EFC
:1001200000000080BEABAAAAAA3E00000000BF00EB
:100130000000803F0000000000084178D3BB4387E7
:10014000D1133D190E3CC3BD4282AD2B3E68EC82FB
:1001500076BED98FE1A93E4C80EFFFBE01C4FF7F80
:100160003F000000000011241FBECFEFD1E2DEBF30
:10017000CDBF00E00CBF14E0A0E0B2E0EEE9F4E295
:1001800000E00BBF02C007900D92A831B107D9F76C
:1001900014E0A8E1B4E001C01D92A434B107E1F776
:1001A0000E942D070C944D120C94000087B1876FAC
:1001B00087B988B1807888B9089587B1876F87B982
:1001C00088B1807888B908952AEF30E0C901019795
:1001D000F1F74098419840E348B9429A82EE94E0A2
:1001E000FC013197F1F74298F9013197F1F7409806
:1001F000419848B9429AFC013197F1F74298F901C8
:100200003197F1F74098419848B9429A0197F1F730
:100210004298C9010197F1F74098419880E288B966
:10022000429AC9010197F1F74298089598B19F70D9
:1002300098B928B1982F907F922B98B940984198FF
:10024000429A22EE34E0F9013197F1F7429898B1E1
:100250009F7098B998B18295807F982B98B94098F3
:100260004198429AC9010197F1F7429808958AEF9F
:1002700090E00197F1F788E20E94160181E00E9468
:10028000160186E00E9416018EE00E94160180E8A9
:100290000E941601089598B19F7098B928B1982FBF
:1002A000907F922B98B9409A4198429A22EE34E07E
:1002B000F9013197F1F7429898B19F7098B998B1C8
:1002C0008295807F982B98B9409A4198429AC901AB
:1002D0000197F1F74298089580E80E941601089569
:1002E000CF93DF93EC0103C00E944B0121968881DC
:1002F0008823D1F7DF91CF910895823069F0833060
:1003000018F48130A9F405C0833049F0843081F4B9
:100310000BC0862F815805C0862F815402C0862FBE
:100320008D560E9416010895862F8D520E94160147
:1003300008950F931F93CF93DF938A01E9018823D8
:1003400011F0662319F40E946C0102C00E947D0125
:10035000C530D10571F4C80160E177E20E948B0FCE
:10036000CB01C09690932804809327040E944B01F0
:1003700005C0C430D10511F080E016C0C80168EE98
:1003800073E00E948B0FCB0160932E0490932F0497
:100390006AE070E00E948B0FC096909341048093B6
:1003A00040040E944B0181E0C330D10521F081302F
:1003B00011F080E016C0C80164E670E00E948B0F67
:1003C000CB0160932E0490932F046AE070E00E94AA
:1003D0008B0FC09690933C0480933B040E944B018A
:1003E00081E0C230D10521F0813011F080E016C0EB
:1003F000C8016AE070E00E948B0FCB0160932E046D
:1004000090932F046AE070E00E948B0FC096909347
:100410003904809338040E944B0181E0C130D1053A
:1004200011F0813061F4C8016AE070E00E948B0F26
:10043000C09690933F0480933E040E944B01269700
:100440001CF085E40E944B01DF91CF911F910F9129
:100450000895F89487B1876F87B988B1807888B993
:1004600078940895259A2D9A0895269A2E9A08959B
:10047000259A2D9A269A2E9A0895E1E8F0E01082A6
:100480008CEF8093850081E08093840093E09093CB
:1004900089008FEF8093880090938B0080938A006F
:1004A00090938D0080938C009093870080938600BA
:1004B0008BEA80938000109282008CE08083089504
:1004C0001092890090E0A0E0B0E0BC01CD010E9454
:1004D0001D0D2BE734E14EEE5FE30E948F0B20E011
:1004E00030E04CE052E40E94680A0E94BF0860932A
:1004F0008800089510928B0090E0A0E0B0E0BC016D
:10050000CD010E941D0D2BE734E14EEE5FE30E940A
:100510008F0B20E030E04CE052E40E94680A0E9419
:10052000BF0860938A00089583E0809389008FEF6D
:1005300080938800089583E080938B008FEF8093F1
:100540008A00089584EB0E947A0280E197E229E113
:1005500030E0F9013197F1F70197D9F7089580E577
:100560000E947A0280E197E229E130E0F9013197B7
:10057000F1F70197D9F708950E94A20288EA91E65F
:100580000197F1F70E94AF020895CF93DF93EC013A
:1005900081E063E00E947D0180E092E00E947001B2
:1005A00081E06FE0AE0123E030E00E949901C230AB
:1005B000D10591F0C330D105E1F0219731F581E00B
:1005C0000E94600288E893E129E130E0F901319767
:1005D000F1F70197D9F719C084E10E94600280E128
:1005E00097E229E130E0F9013197F1F70197D9F766
:1005F0000CC08DE20E94600280E197E229E130E0C8
:10060000F9013197F1F70197D9F7DF91CF9108956B
:1006100081B18F6081B982B1807F82B9EAE0F1E077
:10062000808188618083EBE0F1E080818861808354
:1006300008956C98749A08956D98759A089581B18B
:100640008F6081B982B1807F82B9EAE0F1E0808178
:1006500088618083EBE0F1E08081886180836C9821
:10066000749A6D98759A0895F894EAE6F0E080819E
:1006700082608083EC9A78940895F894EAE6F0E03A
:10068000808188608083ED9A789408951F920F92FC
:100690000FB60F9211248F939F93AF93BF938091C6
:1006A0001C0490911D04A0911E04B0911F0401969A
:1006B000A11DB11D80931C0490931D04A0931E04E2
:1006C000B0931F04BF91AF919F918F910F900FBE78
:1006D0000F901F9018951F920F920FB60F92112432
:1006E0008F939F93AF93BF938091180490911904B7
:1006F000A0911A04B0911B040196A11DB11D809315
:10070000180490931904A0931A04B0931B04BF918A
:10071000AF919F918F910F900FBE0F901F901895E2
:1007200092B1907F8F70892B82B9089582B1807FBA
:10073000866082B9089582B1807F816082B9089510
:1007400082B1807F896082B9089582B1807F82B949
:10075000089510921C0410921D0410921E04109211
:100760001F04109218041092190410921A04109287
:100770001B04A0E0B0E0BC01CD010E941D0D28E4E7
:1007800031EE42E850E40E948F0B0E94BF08672BB5
:1007900021F482B1807F82B90895FFCF10921C04AA
:1007A00010921D0410921E0410921F04109218043F
:1007B0001092190410921A0410921B04FFCF22B158
:1007C000207F266022B90E94CE03089522B1207FA7
:1007D000216022B90E94CE030895F8940E941F035D
:1007E000F894EAE6F0E0808182608083EC9A789465
:1007F000F894EAE6F0E0808188608083ED9A78944E
:10080000789408958AEF90E0FC013197F1F74098D1
:10081000419840E348B9429A22EE34E0F901319719
:10082000F1F74298FC013197F1F74098419848B9A7
:10083000429AF9013197F1F74298FC013197F1F7AB
:100840004098419848B9429AF9013197F1F7429896
:100850000197F1F74098419880E288B9429AC9011E
:100860000197F1F74298089598B19F7098B928B10F
:10087000982F907F922B98B940984198429A22EEF7
:1008800034E0F9013197F1F7429898B19F7098B927
:1008900098B18295807F982B98B940984198429A58
:1008A000C9010197F1F7429808958AEF90E0019706
:1008B000F1F788E20E94340481E00E94340486E06B
:1008C0000E9434048EE00E94340480E80E943404C4
:1008D000089598B19F7098B928B1982F907F922B66
:1008E00098B9409A4198429A22EE34E0F901319742
:1008F000F1F7429898B19F7098B998B18295807F2E
:10090000982B98B9409A4198429AC9010197F1F7FA
:100910004298089580E80E9434040895CF93DF93AD
:10092000EC0103C00E946904219688818823D1F7D5
:10093000DF91CF910895823069F0833018F48130CF
:10094000A9F405C0833049F0843081F40BC0862FB0
:10095000815805C0862F815402C0862F8D560E9473
:1009600034040895862F8D520E94340408950F9305
:100970001F93CF93DF938A01E901882311F0662347
:1009800019F40E948A0402C00E949B04C530D1055C
:1009900071F4C80160E177E20E948B0FCB01C09631
:1009A00090932804809327040E94690405C0C430F2
:1009B000D10511F080E016C0C80168EE73E00E9416
:1009C0008B0FCB0160932E0490932F046AE070E0AC
:1009D0000E948B0FC09690934104809340040E9424
:1009E000690481E0C330D10521F0813011F080E04D
:1009F00016C0C80164E670E00E948B0FCB016093C3
:100A00002E0490932F046AE070E00E948B0FC09632
:100A100090933C0480933B040E94690481E0C230BF
:100A2000D10521F0813011F080E016C0C8016AE0E4
:100A300070E00E948B0FCB0160932E0490932F04E3
:100A40006AE070E00E948B0FC09690933904809307
:100A500038040E94690481E0C130D10511F0813071
:100A600061F4C8016AE070E00E948B0FC096909319
:100A70003F0480933E040E94690426971CF085E49D
:100A80000E946904DF91CF911F910F91089587B162
:100A9000876F87B988B1807888B9089510BA11BA7C
:100AA0001092070110920801089587B1876F87B9E6
:100AB00088B1807888B910BA11BA109207011092E3
:100AC00008010895EAE7F0E0108210927B0080E2CE
:100AD00080937C0080E880BF86E880830895982F0B
:100AE000883018F088E080937B0097709062909334
:100AF0007C0080917A00806480937A0080917A00F3
:100B000084FFFCCF8091790090917A00906190935E
:100B10007A0010927B0008950F931F93182F062FD1
:100B2000842F0E946F05482F80933104812F602FFE
:100B300050E023E030E00E94B7041F910F91089528
:100B40003B9A439808953B9A4398089586B18860EC
:100B500088B9089586B1877F88B90895E1EDF0E0FE
:100B600010821092D00086E08093D2008FE58093AF
:100B7000D4001092D50088E9808308950E94C502B0
:100B80000E94BC020895F8943B9A4398E1EDF0E08E
:100B900010821092D00086E08093D2008FE580937F
:100BA000D4001092D50088E9808387B1876F87B918
:100BB00088B1807888B9259A2D9A269A2E9A0E9413
:100BC0003D0287B1876F87B988B1807888B910BA3C
:100BD00011BA1092070110920801EAE7F0E01082C2
:100BE00010927B0080E280937C0080E880BF86E8E2
:100BF00080830E941F03F894EAE6F0E0808182601F
:100C00008083EC9A7894F894EAE6F0E0808188603A
:100C10008083ED9A78940E94E4000E9437010E943C
:100C2000AF0210920E0310920D031092200481E087
:100C3000809304038FEF90E0909306038093050365
:100C4000909308038093070381E090E090930A0358
:100C50008093090390930C0380930B037894089579
:100C60001F920F920FB60F920BB60F9211242F9373
:100C70003F934F935F936F937F938F939F93AF9324
:100C8000BF93EF93FF938091D60080933A0486330D
:100C900061F1873340F48233B1F08333F9F081336B
:100CA00009F052C009C0883309F449C08833E0F123
:100CB000893309F049C03FC080912004882319F08E
:100CC00081E090E006C080912004882339F082E022
:100CD00090E00E94BE05109220044FC08091200435
:100CE000882319F083E090E0F4CF0E94C30581E0EF
:100CF00090E09093220480932104F89480913A0428
:100D00008093D600789481E063E00E947D018DE0BD
:100D100092E00E94700182E063E00E947D0188E21F
:100D200092E00E94700129C081E090E09093240439
:100D30008093230422C01092220410922104109266
:100D400024041092230419C081E063E00E947D0115
:100D500083E492E00E94700182E063E00E947D01E2
:100D600089E592E00E94700140913A0482E06AE0D5
:100D700050E024E030E00E94B704FF91EF91BF9172
:100D8000AF919F918F917F916F915F914F913F9123
:100D90002F910F900BBE0F900FBE0F901F901895C4
:100DA00085E00E946F0590E0909306038093050311
:100DB000873E910528F010920A031092090306C09D
:100DC00081E090E090930A038093090384E00E94FD
:100DD0006F0590E09093080380930703893C910589
:100DE00038F081E090E090930C0380930B0308951A
:100DF00010920C0310920B03089588E893E129E107
:100E000030E0F9013197F1F70197D9F781E062E01D
:100E10000E947D0180E692E00E94700182E062E023
:100E20000E947D0180E692E00E94700140910503DE
:100E30005091060381E06EE023E030E00E94B704A9
:100E4000409107035091080382E06EE023E030E018
:100E50000E94B7040E94D00608950F931F93CF936A
:100E6000DF930E94C3051092220410922104109275
:100E700024041092230481E061E00E947D0182E855
:100E800092E00E94700182E061E00E947D0187E9AA
:100E900092E00E947001C9E1D0E00FE311E080917F
:100EA000210490912204892B09F405C18091230427
:100EB00090912404892B09F0F5C0FCC01092040322
:100EC00082B1807F82B988E893E1FE013197F1F722
:100ED0000197D9F7F8940093D600109320047894E2
:100EE00081E062E00E947D018FEA92E00E94700141
:100EF00082E062E00E947D018CEB92E00E94700132
:100F0000409105035091060381E06EE023E030E05C
:100F10000E94B704409107035091080382E06EE0FD
:100F200023E030E00E94B704209120048091230444
:100F300090912404892B11F02223F1F70E94D0060E
:100F40008091230490912404892B39F080910B0324
:100F500090910C03892B09F4B1CF0E94FD0680917A
:100F6000230490912404892B09F43FC080910B0342
:100F700090910C03892BC9F11093040381E065E083
:100F80000E947D0188EC92E01AC00E94D00689E0A0
:100F900090E00E94DF038091090390910A03892B5E
:100FA000D9F581E062E00E947D0181ED92E00E942E
:100FB000700182E062E00E947D018CED92E00E946F
:100FC0007001409105035091060381E06EE023E03B
:100FD00030E00E94B704409107035091080382E07B
:100FE0006EE023E030E00E94B704809123049091EA
:100FF0002404892B89F080910B0390910C03892B99
:1010000059F080910403882339F08091090390916D
:101010000A03892B09F4B9CF0E94FD062AC081E09A
:1010200062E00E947D0186EE92E00E94700182E003
:1010300062E00E947D0180EF92E00E947001409189
:1010400005035091060381E06EE023E030E00E944A
:10105000B704409107035091080382E06EE023E05B
:1010600030E00E94B70489E190E00E94E6030E940C
:10107000D0068091230490912404892B89F08091DB
:10108000090390910A03892B59F080910B039091E9
:101090000C03892B29F080910403882309F0BFCF2A
:1010A0000E94FD068091230490912404892B09F469
:1010B000F6CE44CFFFCFFFCFCF93DF930E94C3057F
:1010C0000E94E4000E94370181E063E00E947D01FC
:1010D0008BEF92E00E94700120E23EE4C9E1D0E093
:1010E00005C0CE010197F1F721503040211531059F
:1010F000C1F789E190E00E94DF0380E29EE4FE01F7
:101100003197F1F70197D9F789E190E00E94E60362
:1011100020E23EE4E6CF90E0A0E0B0E0BC01CD01EB
:101120000E941D0D2FEE39EC43E95FE30E94D60FBC
:101130009B01AC0160E070E080E89FE30E948F0BB0
:101140002AE939EF4EE255E40E94950A20E030E0AA
:1011500040E251E40E94950A0E94C90C882777FD5D
:101160008095982F0E946B0C0E94C90C9B0183E014
:101170006132780710F020E233E0C9010895EF9260
:10118000FF920F931F937B018C0120E030E040E041
:101190005FE40E943B0C88238CF0C801B70120E07B
:1011A00030E040E05FE40E94370A0E94C90C9B01D6
:1011B000AC01205030404040504806C0C801B70143
:1011C0000E94C90C9B01AC01B901CA011F910F918A
:1011D000FF90EF900895A0E0B0E0E1EFF8E00C940C
:1011E0009F0FDC012B01FA019C91923008F439C168
:1011F000EB018881823008F433C1943069F4843083
:1012000009F02FC111969C9111978981981709F4C3
:1012100028C1AFE0B3E025C1843009F421C1823098
:10122000A9F4923009F01DC19A01AD0188E0EA01EC
:101230000990AE01E90109929E018150C1F7E201D6
:10124000898111969C918923818308C1923009F488
:1012500007C112962D903C901397EB018A819B81D8
:101260001496AD90BD90CD90DC901797EC80FD80EA
:101270000E811F819101281B390BB90137FF04C072
:1012800066277727621B730B603271050CF061C013
:10129000121613066CF537014801062E04C0969409
:1012A0008794779467940A94D2F721E030E040E085
:1012B00050E004C0220F331F441F551F6A95D2F718
:1012C00021503040404050402E213F2140235123A7
:1012D000211531054105510521F021E030E040E0C4
:1012E00050E079018A01E628F728082919293CC02D
:1012F000232BD1F1260E371E35014601062E04C0E0
:1013000096948794779467940A94D2F721E030E01A
:1013100040E050E004C0220F331F441F551F6A9560
:10132000D2F721503040404050402A213B214C21EF
:101330005D21211531054105510521F021E030E005
:1013400040E050E059016A01A628B728C828D928EA
:101350000BC0821593052CF01C01AA24BB24650147
:1013600003C0EE24FF24870111969C91D2011196AF
:101370008C91981709F445C0992339F0A801970179
:101380002A193B094C095D0906C0A60195012E19D1
:101390003F09400B510B57FD08C011823382228256
:1013A00024833583468357831DC081E08183338244
:1013B000228288279927DC01821B930BA40BB50B93
:1013C00084839583A683B7830DC0220F331F441FE8
:1013D000551F2483358346835783828193810197E8
:1013E000938382832481358146815781DA01C90143
:1013F0000197A109B1098F5F9F4FAF4FBF4328F3FA
:101400000BC0918333822282EA0CFB1C0C1D1D1D34
:10141000E482F5820683178383E08083248135810B
:101420004681578157FF1AC0C901AA2797FDA09589
:10143000BA2F81709070A070B0705695479537950F
:101440002795822B932BA42BB52B84839583A6837E
:10145000B78382819381019693838283DF0101C0E8
:10146000D201CD01CDB7DEB7E2E10C94BB0FA0E213
:10147000B0E0EDE3FAE00C94AB0F69837A838B83E1
:101480009C832D833E834F835887E9E0EE2EF12C19
:10149000EC0EFD1ECE010196B7010E94BA0E8E0120
:1014A0000F5E1F4FCE010596B8010E94BA0E8A89C1
:1014B00091E089278A8BC701B801AE01475E5F4F73
:1014C0000E94EB080E94E50DA096E6E00C94C70F81
:1014D000A0E2B0E0EEE6FAE00C94AB0F69837A8309
:1014E0008B839C832D833E834F835887F9E0EF2EB7
:1014F000F12CEC0EFD1ECE010196B7010E94BA0E32
:101500008E010F5E1F4FCE010596B8010E94BA0EE4
:10151000C701B801AE01475E5F4F0E94EB080E9411
:10152000E50DA096E6E00C94C70FA0E2B0E0EBE971
:10153000FAE00C949F0F69837A838B839C832D83BD
:101540003E834F835887CE010196BE01675F7F4F70
:101550000E94BA0ECE010596BE016F5E7F4F0E94BB
:10156000BA0E9985923088F089898230C8F094301B
:1015700019F4823051F404C0843029F4923081F49B
:101580008FE093E0C6C0923049F420E09A858A89C2
:10159000981321E02A87CE010996BBC0823049F416
:1015A00020E09A858A89981321E02A8BCE01419602
:1015B000B0C02D843E844F8458886D887E888F8883
:1015C000988CEE24FF248701AA24BB24650140E007
:1015D00050E060E070E0E0E0F0E0C1018170907008
:1015E000892BE9F0E60CF71C081D191D9A01AB01C7
:1015F0002A0D3B1D4C1D5D1D80E090E0A0E0B0E099
:10160000E614F7040805190520F481E090E0A0E055
:10161000B0E0BA01A901480F591F6A1F7B1FAA0C2D
:10162000BB1CCC1CDD1C97FE08C081E090E0A0E054
:10163000B0E0A82AB92ACA2ADB2A3196E032F1059D
:1016400049F0660C771C881C991C56944794379473
:101650002794C3CFFA85EA892B893C898B859C85A1
:10166000280F391F2E5F3F4F17C0CA01817090703D
:10167000892B61F016950795F794E79480E090E048
:10168000A0E0B0E8E82AF92A0A2B1B2B769567958B
:10169000579547952F5F3F4F77FDE7CF0CC0440F1D
:1016A000551F661F771F17FD4160EE0CFF1C001FC2
:1016B000111F21503040403090E0590790E06907F9
:1016C00090E4790760F32B8F3C8FDB01CA018F77A1
:1016D0009070A070B07080349105A105B10561F4DF
:1016E00047FD0AC0E114F1040105110529F0405C31
:1016F0005F4F6F4F7F4F40781A8EFE1711F081E0D9
:101700008A8F4D8F5E8F6F8F78A383E0898FCE0194
:1017100049960E94E50DA096E2E10C94BB0FA8E16A
:10172000B0E0E5E9FBE00C94A70F69837A838B8333
:101730009C832D833E834F835887B9E0EB2EF12C99
:10174000EC0EFD1ECE010196B7010E94BA0E8E016D
:101750000F5E1F4FCE010596B8010E94BA0E298573
:10176000223008F47EC03989323010F4B8017CC0D0
:101770008A859A8989278A87243011F0223031F4AA
:10178000231709F06EC06FE073E06EC0343039F497
:101790001D861E861F86188A1C861B8604C0323052
:1017A00021F484E08987B7015FC02B853C858B8954
:1017B0009C89281B390B3C872B87ED84FE840F8581
:1017C0001889AD88BE88CF88D88CEA14FB040C0534
:1017D0001D0540F4EE0CFF1C001F111F215030406E
:1017E0003C872B8720E030E040E050E080E090E054
:1017F000A0E0B0E460E070E0EA14FB040C051D0515
:1018000040F0282B392B4A2B5B2BEA18FB080C09DC
:101810001D09B695A79597958795EE0CFF1C001F9F
:10182000111F6F5F7F4F6F31710531F7DA01C90109
:101830008F779070A070B07080349105A105B105CC
:1018400061F427FD0AC0E114F1040105110529F036
:10185000205C3F4F4F4F5F4F20782D873E874F874B
:10186000588BBE01675F7F4FCB010E94E50D6896E4
:10187000EAE00C94C30FA8E1B0E0E1E4FCE00C94D2
:10188000AB0F69837A838B839C832D833E834F8345
:10189000588789E0E82EF12CEC0EFD1ECE01019652
:1018A000B7010E94BA0E8E010F5E1F4FCE01059642
:1018B000B8010E94BA0E8985823040F08989823051
:1018C00028F0C701B8010E94320F01C08FEF68965F
:1018D000E6E00C94C70FA8E0B0E0E1E7FCE00C9470
:1018E000A80F9B01AC0183E08983DA01C901882735
:1018F000B7FD83959927AA27BB27B82E2115310557
:101900004105510519F482E089833AC08823A9F082
:10191000203080E0380780E0480780E8580729F445
:1019200060E070E080E09FEC30C0EE24FF2487018F
:10193000E21AF30A040B150B02C079018A018EE149
:10194000C82ED12CDC82CB82ED82FE820F831887D9
:10195000C801B7010E94960D01971816190684F464
:10196000082E04C0EE0CFF1C001F111F0A94D2F7B2
:10197000ED82FE820F831887C81AD90ADC82CB82D7
:10198000BA82CE0101960E94E50D2896E9E00C94FA
:10199000C40FACE0B0E0EFECFCE00C94AF0F698357
:1019A0007A838B839C83CE010196BE016B5F7F4F50
:1019B0000E94BA0E8D81823061F1823050F1843004
:1019C00021F48E81882351F12EC02F81388537FD77
:1019D00020C06E812F3131051CF06623F9F023C041
:1019E0008EE190E0821B930B29853A854B855C85BF
:1019F00004C056954795379527958A95D2F7662363
:101A0000B1F050954095309521953F4F4F4F5F4F26
:101A10000EC020E030E040E050E009C02FEF3FEF83
:101A20004FEF5FE704C020E030E040E050E8B9014C
:101A3000CA012C96E2E00C94CB0FA8E0B0E0E3E200
:101A4000FDE00C94A70F7B018C01611571058105E8
:101A5000910519F482E0898360C083E089838EE177
:101A6000C82ED12CDC82CB82ED82FE820F831887B8
:101A7000C801B7010E94960DFC013197F7FF3BC0EA
:101A8000222733272E1B3F0B57016801022E04C06B
:101A9000D694C794B794A7940A94D2F740E050E044
:101AA00060E070E081E090E0A0E0B0E004C0880F6A
:101AB000991FAA1FBB1F2A95D2F70197A109B10947
:101AC0008E219F21A023B1230097A105B10521F00C
:101AD00041E050E060E070E04A295B296C297D29F3
:101AE0004D835E836F8378878EE190E08E1B9F0B22
:101AF0009C838B8312C0309781F00E2E04C0EE0CB5
:101B0000FF1C001F111F0A94D2F7ED82FE820F8383
:101B10001887CE1ADF0ADC82CB821A82CE010196A8
:101B20000E94E50D2896EAE00C94C30FEF92FF9215
:101B30000F931F937B018C0180E0E81680E0F8068C
:101B400081E0080780E0180788F48FEFE816F104B9
:101B50000105110531F028F088E090E0A0E0B0E048
:101B600017C080E090E0A0E0B0E012C080E0E8168E
:101B700080E0F80680E0080781E0180728F088E197
:101B800090E0A0E0B0E004C080E190E0A0E0B0E030
:101B900020E230E040E050E0281B390B4A0B5B0BA1
:101BA00004C016950795F794E7948A95D2F7F70144
:101BB000E95EFC4F8081281B310941095109C901A7
:101BC0001F910F91FF90EF900895DF92EF92FF9297
:101BD0000F931F93FC01E480F58006811781D1806B
:101BE0008081823048F480E090E0A0E1B0E0E82A13
:101BF000F92A0A2B1B2BA5C0843009F49FC0823020
:101C000021F4EE24FF24870105C0E114F10401054D
:101C1000110519F4E0E0F0E096C0628173819FEF56
:101C2000623879070CF05BC022E83FEF261B370BC8
:101C30002A3131052CF020E030E040E050E02AC0AD
:101C4000B801A701022E04C0769567955795479570
:101C50000A94D2F781E090E0A0E0B0E004C0880FE1
:101C6000991FAA1FBB1F2A95D2F70197A109B10995
:101C70008E219F21A023B1230097A105B10521F05A
:101C800081E090E0A0E0B0E09A01AB01282B392B75
:101C90004A2B5B2BDA01C9018F779070A070B0706E
:101CA00080349105A105B10539F427FF09C0205CF6
:101CB0003F4F4F4F5F4F04C0215C3F4F4F4F5F4F2F
:101CC000E0E0F0E02030A0E03A07A0E04A07A0E41E
:101CD0005A0710F0E1E0F0E079018A0127C060388E
:101CE000710564F5FB01E158FF4FD801C7018F77FB
:101CF0009070A070B07080349105A105B10539F4E1
:101D0000E7FE0DC080E490E0A0E0B0E004C08FE307
:101D100090E0A0E0B0E0E80EF91E0A1F1B1F17FFBD
:101D200005C016950795F794E794319687E01695C8
:101D30000795F794E7948A95D1F705C0EE24FF2420
:101D40008701EFEFF0E06E2F679566276795902F7C
:101D50009F77D794DD24D7948E2F8695492F462BD5
:101D6000582F5D29B701CA011F910F91FF90EF9085
:101D7000DF900895FC01DB01408151812281622FB7
:101D80006F7770E0221F2227221F9381892F880FEF
:101D9000822B282F30E0991F9927991F11969C9329
:101DA000119721153105A9F54115510561057105F9
:101DB00011F482E037C082E89FEF13969C938E93D4
:101DC00012979A01AB0167E0220F331F441F551F82
:101DD0006A95D1F783E08C930DC0220F331F441F07
:101DE000551F12968D919C911397019713969C9372
:101DF0008E931297203080E0380780E0480780E417
:101E0000580758F314962D933D934D935C93179771
:101E100008952F3F310579F441155105610571058C
:101E200019F484E08C93089564FF03C081E08C93DF
:101E300012C01C9210C02F57304013963C932E9323
:101E4000129783E08C9387E0440F551F661F771F1E
:101E50008A95D1F7706414964D935D936D937C933E
:101E6000179708951F93DC01FB019C91923008F4B1
:101E700047C08081823008F443C0943051F41196F9
:101E80001C91843099F58181682F70E0611B710984
:101E90003FC0843021F0923031F48230B9F1818139
:101EA000882389F12DC011961C9111978230F1F091
:101EB00081811817D9F412962D913C911397828144
:101EC00093818217930794F028173907BCF0149672
:101ED0008D919D910D90BC91A02D248135814681DD
:101EE0005781281739074A075B0718F4112341F077
:101EF0000AC082179307A407B50740F4112319F00D
:101F000061E070E005C06FEF7FEF02C060E070E05D
:101F1000CB011F910895AA1BBB1B51E107C0AA1F4B
:101F2000BB1FA617B70710F0A61BB70B881F991F7A
:101F30005A95A9F780959095BC01CD0108952F92EF
:101F40003F924F925F926F927F928F929F92AF9249
:101F5000BF92CF92DF92EF92FF920F931F93CF9396
:101F6000DF93CDB7DEB7CA1BDB0B0FB6F894DEBF2D
:101F70000FBECDBF19942A88398848885F846E8443
:101F80007D848C849B84AA84B984C884DF80EE809D
:101F9000FD800C811B81AA81B981CE0FD11D0FB6A6
:101FA000F894DEBF0FBECDBFED010895FA01EE0F2C
:101FB000FF1F30962105310599F16115710561F416
:101FC0008038BFE39B0749F168949038810561F040
:101FD0008038BFEF9B0741F0992342F5FF3FE105B1
:101FE0003105210511F1E8940894E795D901AA2358
:101FF00029F4AB2FBE2FF85FD0F310C0FF5F70F451
:10200000A695E0F7F73950F019F0FF3A38F49F77CA
:102010009F930CD00F9007FC905808953EF049C054
:1020200060E070E080E89FE308954FE79F775F935B
:102030004F933F932F93D0D02F913F914F915F912A
:1020400074DA05C019F40EF02EC07DC032C061D024
:10205000C8F39638C0F707F80F92E8942BE33AEAF2
:1020600048EB5FE738D10F920F920F924DB75EB7F2
:102070000F92F2D0E4EEF0E01FD04F915F91EF911C
:10208000FF91E595EE1FFF1F49F0FE57E0684427DA
:10209000EE0F441FFA95E1F74195550B64D00F9070
:1020A00007FE58C0089597F99F6780E870E060E0E8
:1020B00008959FEF80EC0895DF93CF931F930F93C4
:1020C000FF92EF92DF927B018C01689405C0DA2EBB
:1020D000EF01FFD0FE01E894A5912591359145913E
:1020E0005591AEF3EF0159D1FE019701A801DA94A1
:1020F00079F7DF90EF90FF900F911F91CF91DF91D3
:10210000089557FD9058440F551F59F05F3F71F0E7
:102110004795880F97FB991F61F09F3F79F087954E
:102120000895121613061406551FF2CF4695F1DFD7
:1021300008C0161617061806991FF1CF8695710567
:10214000610508940895E894BB2766277727CB019B
:1021500097F908959B01AC0160E070E080E89FE38F
:10216000DECAA1CF6DC1D5DFE8F39923D9F3940F6F
:10217000511DBBF39150504094F059F0882332F038
:10218000660F771F881F91505040C1F79E3F510541
:1021900044F7880F911D9695879597F908955F3FAD
:1021A000ACF0983E9CF0BB27869577956795B795E0
:1021B00008F4B1609395C1F7BB0F58F711F460FFB5
:1021C000E8CF6F5F7F4F8F4F9F4FE3CFBDCF0EF0B4
:1021D00037C16FCF689467CF9CDFC8F39923D1F3E1
:1021E000C6F3DF93CF931F930F93FF92C92FDD2781
:1021F00088232AF02197660F771F881FDAF720E0DF
:1022000030E040E85FEB9FE3883920F0803E30F01B
:1022100021968F775DD9ECE0F1E003C059D9E9E36D
:10222000F1E04ADF8B01BE01EC01FB2E6F57710913
:102230007595771F880B990B4EDB28E132E741E358
:102240005FE347D0AF2D9801AE01FF900F911F9132
:10225000CF91DF91A2D010C1FA01DC01AA0FBB1F00
:102260009B01AC01BF5728F422273327442750781D
:102270001FC0B75188F4AB2F00244695379527959A
:10228000011CA395D2F3002069F0220F331F441FD5
:10229000B395DAF30DD0EBC861307105A0E88A0779
:1022A000B94630F49B01AC016627772788279078E0
:1022B000309621F020833183428353830895CED01A
:1022C00028F0D3D018F0952309F0EDCEF2CE1124EA
:1022D0003BCF17DFA0F3959FD1F3950F50E0551F2B
:1022E000629FF001729FBB27F00DB11D639FAA276B
:1022F000F00DB11DAA1F649F6627B00DA11D661FBA
:10230000829F2227B00DA11D621F739FB00DA11DDA
:10231000621F839FA00D611D221F749F3327A00D94
:10232000611D231F849F600D211D822F762F6A2F30
:1023300011249F5750408AF0E1F088234AF0EE0FB5
:10234000FF1FBB1F661F771F881F91505040A9F7C2
:102350009E3F510570F0A7CEF7CE5F3FECF3983E5D
:10236000DCF3869577956795B795F795E7959F5F29
:10237000C1F7FE2B880F911D9695879597F90895C3
:102380006DD030F072D020F031F49F3F11F41EF484
:1023900090CE0EF4E095E7FB86CEE92FB2DE80F317
:1023A000BA17620773078407950718F071F49EF552
:1023B000CACE0EF4E0950B2EBA2FA02D0B01B90159
:1023C00090010C01CA01A0011124FF27591B99F0AB
:1023D000593F50F4503E68F11A16F040A22F232FB7
:1023E000342F4427585FF3CF469537952795A79507
:1023F000F0405395C9F77EF41F16BA0B620B730BAE
:10240000840BBAF09150A1F0FF0FBB1F661F771F1E
:10241000881FC2F70EC0BA0F621F731F841F48F4D3
:10242000879577956795B795F7959E3F08F0B3CF59
:102430009395880F08F09927EE0F97958795089543
:102440009F3F31F0915020F4879577956795B79528
:10245000880F911D9695879597F9089500240A9401
:102460001616170618060906089500240A9412166F
:102470001306140605060895092E0394000C11F4A2
:10248000882352F0BB0F40F4BF2B11F460FF04C04F
:0E2490006F5F7F4F8F4F9F4F0895F894FFCFDF
:10249E00636C617373206C6162656C200057656CB0
:1024AE00636F6D65203A29202020202020202020D7
:1024BE0020202020202020004920616D207265619F
:1024CE0064792C207072657373207374617274203A
:1024DE00202000476F7420736F6D652064617461F6
:1024EE002066726F6D20504300446174613A200083
:1024FE002D2D2D2D2D2D2D2D2D2D2D2D2D2D2D2DFE
:10250E002D2D2D2D2D2D2D2D2D2D2D2D2D2D2D2DED
:10251E002D0048756B756D206D6572652041616B80
:10252E0061612E2E2E2E0057616974696E672066CA
:10253E006F7220696E69745F7369676E616C003AC1
:10254E002920676F742066727569740070697374E0
:10255E006F6E2073746F700068756E6772792121CB
:10256E00004950552068756E677279006D766E67FA
:10257E00206261636B0069703A6E6F206672740040
:10258E006D766E672061686561640068690004009D
:10259E0096001E0001FF00FF000100010001000077
:1025AE000000000000000000010202030303030408
:1025BE0004040404040404050505050505050505C4
:1025CE0005050505050505060606060606060606A4
:1025DE00060606060606060606060606060606068D
:1025EE000606060606060607070707070707070774
:1025FE00070707070707070707070707070707075D
:10260E00070707070707070707070707070707074C
:10261E00070707070707070707070707070707073C
:10262E000707070707070708080808080808080823
:10263E00080808080808080808080808080808080C
:10264E0008080808080808080808080808080808FC
:10265E0008080808080808080808080808080808EC
:10266E0008080808080808080808080808080808DC
:10267E0008080808080808080808080808080808CC
:10268E0008080808080808080808080808080808BC
:10269E0008080808080808080808080808080808AC
:0826AE000808080808080800EC
:00000001FF
